:100000000C9434000C9449000C9449000C94490061
:100010000C9449000C9449000C9449000C9449003C
:100020000C9449000C9449000C9449000C9449002C
:100030000C9449000C9449000C9449000C9449001C
:100040000C9449000C9449000C9449000C9449000C
:100050000C9449000C9449000C9449000C944900FC
:100060000C9449000C94490011241FBECFEFD8E036
:10007000DEBFCDBF11E0A0E0B1E0E4EEF2E002C0EF
:1000800005900D92A033B107D9F70E9452010C944C
:1000900070010C94000060E084E290E00E942A016C
:1000A00061E084E290E00E942A0162E08AE290E04E
:1000B0000E94340163E08AE290E00E94340164E02F
:1000C0008AE290E00E94340165E08AE290E00E94BA
:1000D000340166E08AE290E00E942A0167E08AE249
:1000E00090E00E942A0162E08BE290E00E942A01E7
:1000F00063E08BE290E00E942A0164E08BE290E0F2
:100100000E942A0165E08BE290E00C942A01CF93D3
:10011000C0E060E085E290E00E942A0161E085E2B3
:1001200090E00E942A0166E08BE290E00E942A01A2
:1001300067E08BE290E00E942A01C23061F1C33097
:1001400071F161E0C13009F460E085E290E00E9465
:10015000340165E089E290E00E943F01811509F1D8
:1001600064E089E290E00E943F01811531F163E093
:1001700089E290E00E943F01811509F162E089E285
:1001800090E00E943F018115E1F0CF5FC43009F695
:1001900080E0CF91089567E08BE290E0D8CF66E0F1
:1001A000FBCFE1E024E0C29FC001112480509F4FAB
:1001B000E80FF92FF11D8291ECCFE2E0F3CFE3E0FD
:1001C000F1CFE4E0EFCF1092C50087E68093C40042
:1001D00063E081EC90E00E942A0164E081EC90E011
:1001E0000E942A0163E082EC90E00E94340161E009
:1001F00082EC90E00E942A0162E082EC90E00E9492
:100200002A0162E081EC90E00C9434019091C000EE
:1002100095FFFCCF8093C6000895CF93DF9300D065
:100220000F92CDB7DEB789839A831B82E981FA8169
:100230008B81E80FF11D8081811106C00F900F9016
:100240000F90DF91CF9108950E9406018B818F5FFF
:100250008B83ECCFFC01808121E001C0220F6A95E5
:10026000EAF7822B80830895FC01208181E001C0A0
:10027000880F6A95EAF78095822380830895FC01B0
:10028000808190E002C0959587956A95E2F781702C
:100290000895FC019081862F809589236423682B23
:1002A00060830895CDB7DEB76F970FB6F894DEBFC1
:1002B0000FBECDBF0E94E3000E944B008FE1E0E142
:1002C000F1E0DE01119601900D928A95E1F7CE01E1
:1002D00001960E940D010E9487000E940601FBCF3B
:0402E000F894FFCFC0
:1002E4003132334134353642373839432A302344A6
:1002F4004B6579706164205553415254206578618F
:100304006D706C652073746172746564210A0000F9
:00000001FF
